{
  "_format": "hh-sol-artifact-1",
  "contractName": "CAT",
  "sourceName": "contracts/CAT.sol",
  "abi": [
    {
      "inputs": [
        {
          "internalType": "address",
          "name": "initialOwner",
          "type": "address"
        }
      ],
      "stateMutability": "nonpayable",
      "type": "constructor"
    },
    {
      "inputs": [
        {
          "internalType": "address",
          "name": "spender",
          "type": "address"
        },
        {
          "internalType": "uint256",
          "name": "allowance",
          "type": "uint256"
        },
        {
          "internalType": "uint256",
          "name": "needed",
          "type": "uint256"
        }
      ],
      "name": "ERC20InsufficientAllowance",
      "type": "error"
    },
    {
      "inputs": [
        {
          "internalType": "address",
          "name": "sender",
          "type": "address"
        },
        {
          "internalType": "uint256",
          "name": "balance",
          "type": "uint256"
        },
        {
          "internalType": "uint256",
          "name": "needed",
          "type": "uint256"
        }
      ],
      "name": "ERC20InsufficientBalance",
      "type": "error"
    },
    {
      "inputs": [
        {
          "internalType": "address",
          "name": "approver",
          "type": "address"
        }
      ],
      "name": "ERC20InvalidApprover",
      "type": "error"
    },
    {
      "inputs": [
        {
          "internalType": "address",
          "name": "receiver",
          "type": "address"
        }
      ],
      "name": "ERC20InvalidReceiver",
      "type": "error"
    },
    {
      "inputs": [
        {
          "internalType": "address",
          "name": "sender",
          "type": "address"
        }
      ],
      "name": "ERC20InvalidSender",
      "type": "error"
    },
    {
      "inputs": [
        {
          "internalType": "address",
          "name": "spender",
          "type": "address"
        }
      ],
      "name": "ERC20InvalidSpender",
      "type": "error"
    },
    {
      "inputs": [
        {
          "internalType": "address",
          "name": "owner",
          "type": "address"
        }
      ],
      "name": "OwnableInvalidOwner",
      "type": "error"
    },
    {
      "inputs": [
        {
          "internalType": "address",
          "name": "account",
          "type": "address"
        }
      ],
      "name": "OwnableUnauthorizedAccount",
      "type": "error"
    },
    {
      "anonymous": false,
      "inputs": [
        {
          "indexed": true,
          "internalType": "address",
          "name": "owner",
          "type": "address"
        },
        {
          "indexed": true,
          "internalType": "address",
          "name": "spender",
          "type": "address"
        },
        {
          "indexed": false,
          "internalType": "uint256",
          "name": "value",
          "type": "uint256"
        }
      ],
      "name": "Approval",
      "type": "event"
    },
    {
      "anonymous": false,
      "inputs": [
        {
          "indexed": true,
          "internalType": "address",
          "name": "previousOwner",
          "type": "address"
        },
        {
          "indexed": true,
          "internalType": "address",
          "name": "newOwner",
          "type": "address"
        }
      ],
      "name": "OwnershipTransferred",
      "type": "event"
    },
    {
      "anonymous": false,
      "inputs": [
        {
          "indexed": true,
          "internalType": "address",
          "name": "from",
          "type": "address"
        },
        {
          "indexed": true,
          "internalType": "address",
          "name": "to",
          "type": "address"
        },
        {
          "indexed": false,
          "internalType": "uint256",
          "name": "value",
          "type": "uint256"
        }
      ],
      "name": "Transfer",
      "type": "event"
    },
    {
      "inputs": [
        {
          "internalType": "address",
          "name": "owner",
          "type": "address"
        },
        {
          "internalType": "address",
          "name": "spender",
          "type": "address"
        }
      ],
      "name": "allowance",
      "outputs": [
        {
          "internalType": "uint256",
          "name": "",
          "type": "uint256"
        }
      ],
      "stateMutability": "view",
      "type": "function"
    },
    {
      "inputs": [
        {
          "internalType": "address",
          "name": "spender",
          "type": "address"
        },
        {
          "internalType": "uint256",
          "name": "value",
          "type": "uint256"
        }
      ],
      "name": "approve",
      "outputs": [
        {
          "internalType": "bool",
          "name": "",
          "type": "bool"
        }
      ],
      "stateMutability": "nonpayable",
      "type": "function"
    },
    {
      "inputs": [
        {
          "internalType": "address",
          "name": "account",
          "type": "address"
        }
      ],
      "name": "balanceOf",
      "outputs": [
        {
          "internalType": "uint256",
          "name": "",
          "type": "uint256"
        }
      ],
      "stateMutability": "view",
      "type": "function"
    },
    {
      "inputs": [],
      "name": "decimals",
      "outputs": [
        {
          "internalType": "uint8",
          "name": "",
          "type": "uint8"
        }
      ],
      "stateMutability": "view",
      "type": "function"
    },
    {
      "inputs": [
        {
          "internalType": "address",
          "name": "to",
          "type": "address"
        },
        {
          "internalType": "uint256",
          "name": "amount",
          "type": "uint256"
        }
      ],
      "name": "mint",
      "outputs": [],
      "stateMutability": "nonpayable",
      "type": "function"
    },
    {
      "inputs": [],
      "name": "name",
      "outputs": [
        {
          "internalType": "string",
          "name": "",
          "type": "string"
        }
      ],
      "stateMutability": "view",
      "type": "function"
    },
    {
      "inputs": [],
      "name": "owner",
      "outputs": [
        {
          "internalType": "address",
          "name": "",
          "type": "address"
        }
      ],
      "stateMutability": "view",
      "type": "function"
    },
    {
      "inputs": [],
      "name": "renounceOwnership",
      "outputs": [],
      "stateMutability": "nonpayable",
      "type": "function"
    },
    {
      "inputs": [
        {
          "internalType": "uint256",
          "name": "amount",
          "type": "uint256"
        }
      ],
      "name": "stake",
      "outputs": [],
      "stateMutability": "nonpayable",
      "type": "function"
    },
    {
      "inputs": [],
      "name": "symbol",
      "outputs": [
        {
          "internalType": "string",
          "name": "",
          "type": "string"
        }
      ],
      "stateMutability": "view",
      "type": "function"
    },
    {
      "inputs": [],
      "name": "totalSupply",
      "outputs": [
        {
          "internalType": "uint256",
          "name": "",
          "type": "uint256"
        }
      ],
      "stateMutability": "view",
      "type": "function"
    },
    {
      "inputs": [
        {
          "internalType": "address",
          "name": "to",
          "type": "address"
        },
        {
          "internalType": "uint256",
          "name": "value",
          "type": "uint256"
        }
      ],
      "name": "transfer",
      "outputs": [
        {
          "internalType": "bool",
          "name": "",
          "type": "bool"
        }
      ],
      "stateMutability": "nonpayable",
      "type": "function"
    },
    {
      "inputs": [
        {
          "internalType": "address",
          "name": "from",
          "type": "address"
        },
        {
          "internalType": "address",
          "name": "to",
          "type": "address"
        },
        {
          "internalType": "uint256",
          "name": "value",
          "type": "uint256"
        }
      ],
      "name": "transferFrom",
      "outputs": [
        {
          "internalType": "bool",
          "name": "",
          "type": "bool"
        }
      ],
      "stateMutability": "nonpayable",
      "type": "function"
    },
    {
      "inputs": [
        {
          "internalType": "address",
          "name": "newOwner",
          "type": "address"
        }
      ],
      "name": "transferOwnership",
      "outputs": [],
      "stateMutability": "nonpayable",
      "type": "function"
    },
    {
      "inputs": [],
      "name": "withdraw",
      "outputs": [],
      "stateMutability": "nonpayable",
      "type": "function"
    }
  ],
  "bytecode": "0x60806040526001600855603c6009553480156200001b57600080fd5b5060405162001e4338038062001e43833981810160405281019062000041919062000292565b806040518060400160405280600381526020017f43617400000000000000000000000000000000000000000000000000000000008152506040518060400160405280600381526020017f43415400000000000000000000000000000000000000000000000000000000008152508160039081620000bf91906200053e565b508060049081620000d191906200053e565b505050600073ffffffffffffffffffffffffffffffffffffffff168173ffffffffffffffffffffffffffffffffffffffff1603620001495760006040517f1e4fbdf700000000000000000000000000000000000000000000000000000000815260040162000140919062000636565b60405180910390fd5b6200015a816200016260201b60201c565b505062000653565b6000600560009054906101000a900473ffffffffffffffffffffffffffffffffffffffff16905081600560006101000a81548173ffffffffffffffffffffffffffffffffffffffff021916908373ffffffffffffffffffffffffffffffffffffffff1602179055508173ffffffffffffffffffffffffffffffffffffffff168173ffffffffffffffffffffffffffffffffffffffff167f8be0079c531659141344cd1fd0a4f28419497f9722a3daafe3b4186f6b6457e060405160405180910390a35050565b600080fd5b600073ffffffffffffffffffffffffffffffffffffffff82169050919050565b60006200025a826200022d565b9050919050565b6200026c816200024d565b81146200027857600080fd5b50565b6000815190506200028c8162000261565b92915050565b600060208284031215620002ab57620002aa62000228565b5b6000620002bb848285016200027b565b91505092915050565b600081519050919050565b7f4e487b7100000000000000000000000000000000000000000000000000000000600052604160045260246000fd5b7f4e487b7100000000000000000000000000000000000000000000000000000000600052602260045260246000fd5b600060028204905060018216806200034657607f821691505b6020821081036200035c576200035b620002fe565b5b50919050565b60008190508160005260206000209050919050565b60006020601f8301049050919050565b600082821b905092915050565b600060088302620003c67fffffffffffffffffffffffffffffffffffffffffffffffffffffffffffffffff8262000387565b620003d2868362000387565b95508019841693508086168417925050509392505050565b6000819050919050565b6000819050919050565b60006200041f620004196200041384620003ea565b620003f4565b620003ea565b9050919050565b6000819050919050565b6200043b83620003fe565b620004536200044a8262000426565b84845462000394565b825550505050565b600090565b6200046a6200045b565b6200047781848462000430565b505050565b5b818110156200049f576200049360008262000460565b6001810190506200047d565b5050565b601f821115620004ee57620004b88162000362565b620004c38462000377565b81016020851015620004d3578190505b620004eb620004e28562000377565b8301826200047c565b50505b505050565b600082821c905092915050565b60006200051360001984600802620004f3565b1980831691505092915050565b60006200052e838362000500565b9150826002028217905092915050565b6200054982620002c4565b67ffffffffffffffff811115620005655762000564620002cf565b5b6200057182546200032d565b6200057e828285620004a3565b600060209050601f831160018114620005b65760008415620005a1578287015190505b620005ad858262000520565b8655506200061d565b601f198416620005c68662000362565b60005b82811015620005f057848901518255600182019150602085019450602081019050620005c9565b868310156200061057848901516200060c601f89168262000500565b8355505b6001600288020188555050505b505050505050565b62000630816200024d565b82525050565b60006020820190506200064d600083018462000625565b92915050565b6117e080620006636000396000f3fe608060405234801561001057600080fd5b50600436106100f55760003560e01c806370a0823111610097578063a694fc3a11610066578063a694fc3a14610250578063a9059cbb1461026c578063dd62ed3e1461029c578063f2fde38b146102cc576100f5565b806370a08231146101da578063715018a61461020a5780638da5cb5b1461021457806395d89b4114610232576100f5565b806323b872dd116100d357806323b872dd14610166578063313ce567146101965780633ccfd60b146101b457806340c10f19146101be576100f5565b806306fdde03146100fa578063095ea7b31461011857806318160ddd14610148575b600080fd5b6101026102e8565b60405161010f91906111bb565b60405180910390f35b610132600480360381019061012d9190611276565b61037a565b60405161013f91906112d1565b60405180910390f35b61015061039d565b60405161015d91906112fb565b60405180910390f35b610180600480360381019061017b9190611316565b6103a7565b60405161018d91906112d1565b60405180910390f35b61019e6103d6565b6040516101ab9190611385565b60405180910390f35b6101bc6103df565b005b6101d860048036038101906101d39190611276565b610600565b005b6101f460048036038101906101ef91906113a0565b610627565b60405161020191906112fb565b60405180910390f35b61021261066f565b005b61021c610683565b60405161022991906113dc565b60405180910390f35b61023a6106ad565b60405161024791906111bb565b60405180910390f35b61026a600480360381019061026591906113f7565b61073f565b005b61028660048036038101906102819190611276565b61088e565b60405161029391906112d1565b60405180910390f35b6102b660048036038101906102b19190611424565b6108b1565b6040516102c391906112fb565b60405180910390f35b6102e660048036038101906102e191906113a0565b610938565b005b6060600380546102f790611493565b80601f016020809104026020016040519081016040528092919081815260200182805461032390611493565b80156103705780601f1061034557610100808354040283529160200191610370565b820191906000526020600020905b81548152906001019060200180831161035357829003601f168201915b5050505050905090565b6000806103856109be565b90506103928185856109c6565b600191505092915050565b6000600254905090565b6000806103b26109be565b90506103bf8582856109d8565b6103ca858585610a6c565b60019150509392505050565b60006012905090565b600954600760003373ffffffffffffffffffffffffffffffffffffffff1673ffffffffffffffffffffffffffffffffffffffff1681526020019081526020016000205461042c91906114f3565b421161046d576040517f08c379a000000000000000000000000000000000000000000000000000000000815260040161046490611599565b60405180910390fd5b6000600660003373ffffffffffffffffffffffffffffffffffffffff1673ffffffffffffffffffffffffffffffffffffffff16815260200190815260200160002054116104ef576040517f08c379a00000000000000000000000000000000000000000000000000000000081526004016104e690611605565b60405180910390fd5b6000600660003373ffffffffffffffffffffffffffffffffffffffff1673ffffffffffffffffffffffffffffffffffffffff1681526020019081526020016000205490506000670de0b6b3a7640000600854600760003373ffffffffffffffffffffffffffffffffffffffff1673ffffffffffffffffffffffffffffffffffffffff168152602001908152602001600020544261058c9190611625565b6105969190611659565b6105a09190611659565b90506000600660003373ffffffffffffffffffffffffffffffffffffffff1673ffffffffffffffffffffffffffffffffffffffff168152602001908152602001600020819055506105f2303384610a6c565b6105fc3382610b60565b5050565b6000670de0b6b3a7640000826106169190611659565b90506106228382610b60565b505050565b60008060008373ffffffffffffffffffffffffffffffffffffffff1673ffffffffffffffffffffffffffffffffffffffff168152602001908152602001600020549050919050565b610677610be2565b6106816000610c69565b565b6000600560009054906101000a900473ffffffffffffffffffffffffffffffffffffffff16905090565b6060600480546106bc90611493565b80601f01602080910402602001604051908101604052809291908181526020018280546106e890611493565b80156107355780601f1061070a57610100808354040283529160200191610735565b820191906000526020600020905b81548152906001019060200180831161071857829003601f168201915b5050505050905090565b6000670de0b6b3a7640000826107559190611659565b90506000811161079a576040517f08c379a0000000000000000000000000000000000000000000000000000000008152600401610791906116e7565b60405180910390fd5b806107a433610627565b10156107e5576040517f08c379a00000000000000000000000000000000000000000000000000000000081526004016107dc90611753565b60405180910390fd5b80600660003373ffffffffffffffffffffffffffffffffffffffff1673ffffffffffffffffffffffffffffffffffffffff168152602001908152602001600020600082825461083491906114f3565b9250508190555042600760003373ffffffffffffffffffffffffffffffffffffffff1673ffffffffffffffffffffffffffffffffffffffff1681526020019081526020016000208190555061088a333083610a6c565b5050565b6000806108996109be565b90506108a6818585610a6c565b600191505092915050565b6000600160008473ffffffffffffffffffffffffffffffffffffffff1673ffffffffffffffffffffffffffffffffffffffff16815260200190815260200160002060008373ffffffffffffffffffffffffffffffffffffffff1673ffffffffffffffffffffffffffffffffffffffff16815260200190815260200160002054905092915050565b610940610be2565b600073ffffffffffffffffffffffffffffffffffffffff168173ffffffffffffffffffffffffffffffffffffffff16036109b25760006040517f1e4fbdf70000000000000000000000000000000000000000000000000000000081526004016109a991906113dc565b60405180910390fd5b6109bb81610c69565b50565b600033905090565b6109d38383836001610d2f565b505050565b60006109e484846108b1565b90507fffffffffffffffffffffffffffffffffffffffffffffffffffffffffffffffff8114610a665781811015610a56578281836040517ffb8f41b2000000000000000000000000000000000000000000000000000000008152600401610a4d93929190611773565b60405180910390fd5b610a6584848484036000610d2f565b5b50505050565b600073ffffffffffffffffffffffffffffffffffffffff168373ffffffffffffffffffffffffffffffffffffffff1603610ade5760006040517f96c6fd1e000000000000000000000000000000000000000000000000000000008152600401610ad591906113dc565b60405180910390fd5b600073ffffffffffffffffffffffffffffffffffffffff168273ffffffffffffffffffffffffffffffffffffffff1603610b505760006040517fec442f05000000000000000000000000000000000000000000000000000000008152600401610b4791906113dc565b60405180910390fd5b610b5b838383610f06565b505050565b600073ffffffffffffffffffffffffffffffffffffffff168273ffffffffffffffffffffffffffffffffffffffff1603610bd25760006040517fec442f05000000000000000000000000000000000000000000000000000000008152600401610bc991906113dc565b60405180910390fd5b610bde60008383610f06565b5050565b610bea6109be565b73ffffffffffffffffffffffffffffffffffffffff16610c08610683565b73ffffffffffffffffffffffffffffffffffffffff1614610c6757610c2b6109be565b6040517f118cdaa7000000000000000000000000000000000000000000000000000000008152600401610c5e91906113dc565b60405180910390fd5b565b6000600560009054906101000a900473ffffffffffffffffffffffffffffffffffffffff16905081600560006101000a81548173ffffffffffffffffffffffffffffffffffffffff021916908373ffffffffffffffffffffffffffffffffffffffff1602179055508173ffffffffffffffffffffffffffffffffffffffff168173ffffffffffffffffffffffffffffffffffffffff167f8be0079c531659141344cd1fd0a4f28419497f9722a3daafe3b4186f6b6457e060405160405180910390a35050565b600073ffffffffffffffffffffffffffffffffffffffff168473ffffffffffffffffffffffffffffffffffffffff1603610da15760006040517fe602df05000000000000000000000000000000000000000000000000000000008152600401610d9891906113dc565b60405180910390fd5b600073ffffffffffffffffffffffffffffffffffffffff168373ffffffffffffffffffffffffffffffffffffffff1603610e135760006040517f94280d62000000000000000000000000000000000000000000000000000000008152600401610e0a91906113dc565b60405180910390fd5b81600160008673ffffffffffffffffffffffffffffffffffffffff1673ffffffffffffffffffffffffffffffffffffffff16815260200190815260200160002060008573ffffffffffffffffffffffffffffffffffffffff1673ffffffffffffffffffffffffffffffffffffffff168152602001908152602001600020819055508015610f00578273ffffffffffffffffffffffffffffffffffffffff168473ffffffffffffffffffffffffffffffffffffffff167f8c5be1e5ebec7d5bd14f71427d1e84f3dd0314c0f7b2291e5b200ac8c7c3b92584604051610ef791906112fb565b60405180910390a35b50505050565b600073ffffffffffffffffffffffffffffffffffffffff168373ffffffffffffffffffffffffffffffffffffffff1603610f58578060026000828254610f4c91906114f3565b9250508190555061102b565b60008060008573ffffffffffffffffffffffffffffffffffffffff1673ffffffffffffffffffffffffffffffffffffffff16815260200190815260200160002054905081811015610fe4578381836040517fe450d38c000000000000000000000000000000000000000000000000000000008152600401610fdb93929190611773565b60405180910390fd5b8181036000808673ffffffffffffffffffffffffffffffffffffffff1673ffffffffffffffffffffffffffffffffffffffff16815260200190815260200160002081905550505b600073ffffffffffffffffffffffffffffffffffffffff168273ffffffffffffffffffffffffffffffffffffffff160361107457806002600082825403925050819055506110c1565b806000808473ffffffffffffffffffffffffffffffffffffffff1673ffffffffffffffffffffffffffffffffffffffff168152602001908152602001600020600082825401925050819055505b8173ffffffffffffffffffffffffffffffffffffffff168373ffffffffffffffffffffffffffffffffffffffff167fddf252ad1be2c89b69c2b068fc378daa952ba7f163c4a11628f55a4df523b3ef8360405161111e91906112fb565b60405180910390a3505050565b600081519050919050565b600082825260208201905092915050565b60005b8381101561116557808201518184015260208101905061114a565b60008484015250505050565b6000601f19601f8301169050919050565b600061118d8261112b565b6111978185611136565b93506111a7818560208601611147565b6111b081611171565b840191505092915050565b600060208201905081810360008301526111d58184611182565b905092915050565b600080fd5b600073ffffffffffffffffffffffffffffffffffffffff82169050919050565b600061120d826111e2565b9050919050565b61121d81611202565b811461122857600080fd5b50565b60008135905061123a81611214565b92915050565b6000819050919050565b61125381611240565b811461125e57600080fd5b50565b6000813590506112708161124a565b92915050565b6000806040838503121561128d5761128c6111dd565b5b600061129b8582860161122b565b92505060206112ac85828601611261565b9150509250929050565b60008115159050919050565b6112cb816112b6565b82525050565b60006020820190506112e660008301846112c2565b92915050565b6112f581611240565b82525050565b600060208201905061131060008301846112ec565b92915050565b60008060006060848603121561132f5761132e6111dd565b5b600061133d8682870161122b565b935050602061134e8682870161122b565b925050604061135f86828701611261565b9150509250925092565b600060ff82169050919050565b61137f81611369565b82525050565b600060208201905061139a6000830184611376565b92915050565b6000602082840312156113b6576113b56111dd565b5b60006113c48482850161122b565b91505092915050565b6113d681611202565b82525050565b60006020820190506113f160008301846113cd565b92915050565b60006020828403121561140d5761140c6111dd565b5b600061141b84828501611261565b91505092915050565b6000806040838503121561143b5761143a6111dd565b5b60006114498582860161122b565b925050602061145a8582860161122b565b9150509250929050565b7f4e487b7100000000000000000000000000000000000000000000000000000000600052602260045260246000fd5b600060028204905060018216806114ab57607f821691505b6020821081036114be576114bd611464565b5b50919050565b7f4e487b7100000000000000000000000000000000000000000000000000000000600052601160045260246000fd5b60006114fe82611240565b915061150983611240565b9250828201905080821115611521576115206114c4565b5b92915050565b7f596f752063616e6e6f742077697468647261772066756e64732c20796f75206160008201527f7265207374696c6c20696e20746865206c6f636b20696e20706572696f640000602082015250565b6000611583603e83611136565b915061158e82611527565b604082019050919050565b600060208201905081810360008301526115b281611576565b9050919050565b7f4e6f207374616b656420746f6b656e7300000000000000000000000000000000600082015250565b60006115ef601083611136565b91506115fa826115b9565b602082019050919050565b6000602082019050818103600083015261161e816115e2565b9050919050565b600061163082611240565b915061163b83611240565b9250828203905081811115611653576116526114c4565b5b92915050565b600061166482611240565b915061166f83611240565b925082820261167d81611240565b91508282048414831517611694576116936114c4565b5b5092915050565b7f43616e6e6f74207374616b65203020746f6b656e730000000000000000000000600082015250565b60006116d1601583611136565b91506116dc8261169b565b602082019050919050565b60006020820190508181036000830152611700816116c4565b9050919050565b7f496e73756666696369656e742062616c616e6365000000000000000000000000600082015250565b600061173d601483611136565b915061174882611707565b602082019050919050565b6000602082019050818103600083015261176c81611730565b9050919050565b600060608201905061178860008301866113cd565b61179560208301856112ec565b6117a260408301846112ec565b94935050505056fea26469706673582212202c363667dfc8de27ae170340cc49a973c72a97b9dbb58c1aa1c50742378e8eb364736f6c63430008180033",
  "linkReferences": {},
  "deployedLinkReferences": {}
}